{
	"data": {
		"bytecode": {
			"linkReferences": {},
			"object": "608060405260325f55601e6001553480156017575f5ffd5b50610473806100255f395ff3fe608060405234801561000f575f5ffd5b5060043610610086575f3560e01c806392cc28411161005957806392cc284114610102578063b53b8d7a14610132578063ead0779a14610150578063f3593cd01461016e57610086565b80630dbe671f1461008a57806314434fa5146100a857806318b0c3fd146100c65780634df7e3d0146100e4575b5f5ffd5b61009261018c565b60405161009f9190610245565b60405180910390f35b6100b0610191565b6040516100bd9190610245565b60405180910390f35b6100ce6101a6565b6040516100db9190610245565b60405180910390f35b6100ec6101bb565b6040516100f99190610245565b60405180910390f35b61011c6004803603810190610117919061028c565b6101c1565b6040516101299190610245565b60405180910390f35b61013a6101ee565b6040516101479190610245565b60405180910390f35b610158610203565b6040516101659190610245565b60405180910390f35b610176610218565b6040516101839190610245565b60405180910390f35b5f5481565b5f6001545f546101a19190610309565b905090565b5f6001545f546101b6919061033c565b905090565b60015481565b5f60038284866101d1919061033c565b6101db919061033c565b6101e5919061039c565b90509392505050565b5f6001545f546101fe919061039c565b905090565b5f6001545f5461021391906103cc565b905090565b5f6001545f5461022891906103fc565b905090565b5f819050919050565b61023f8161022d565b82525050565b5f6020820190506102585f830184610236565b92915050565b5f5ffd5b61026b8161022d565b8114610275575f5ffd5b50565b5f8135905061028681610262565b92915050565b5f5f5f606084860312156102a3576102a261025e565b5b5f6102b086828701610278565b93505060206102c186828701610278565b92505060406102d286828701610278565b9150509250925092565b7f4e487b71000000000000000000000000000000000000000000000000000000005f52601160045260245ffd5b5f6103138261022d565b915061031e8361022d565b9250828203905081811115610336576103356102dc565b5b92915050565b5f6103468261022d565b91506103518361022d565b9250828201905080821115610369576103686102dc565b5b92915050565b7f4e487b71000000000000000000000000000000000000000000000000000000005f52601260045260245ffd5b5f6103a68261022d565b91506103b18361022d565b9250826103c1576103c061036f565b5b828204905092915050565b5f6103d68261022d565b91506103e18361022d565b9250826103f1576103f061036f565b5b828206905092915050565b5f6104068261022d565b91506104118361022d565b925082820261041f8161022d565b91508282048414831517610436576104356102dc565b5b509291505056fea26469706673582212208c52fa192ee4e733d2ee0aa881174ee6de3c7018aedda90558ec6f55aac0dec664736f6c634300081e0033",
			"opcodes": "PUSH1 0x80 PUSH1 0x40 MSTORE PUSH1 0x32 PUSH0 SSTORE PUSH1 0x1E PUSH1 0x1 SSTORE CALLVALUE DUP1 ISZERO PUSH1 0x17 JUMPI PUSH0 PUSH0 REVERT JUMPDEST POP PUSH2 0x473 DUP1 PUSH2 0x25 PUSH0 CODECOPY PUSH0 RETURN INVALID PUSH1 0x80 PUSH1 0x40 MSTORE CALLVALUE DUP1 ISZERO PUSH2 0xF JUMPI PUSH0 PUSH0 REVERT JUMPDEST POP PUSH1 0x4 CALLDATASIZE LT PUSH2 0x86 JUMPI PUSH0 CALLDATALOAD PUSH1 0xE0 SHR DUP1 PUSH4 0x92CC2841 GT PUSH2 0x59 JUMPI DUP1 PUSH4 0x92CC2841 EQ PUSH2 0x102 JUMPI DUP1 PUSH4 0xB53B8D7A EQ PUSH2 0x132 JUMPI DUP1 PUSH4 0xEAD0779A EQ PUSH2 0x150 JUMPI DUP1 PUSH4 0xF3593CD0 EQ PUSH2 0x16E JUMPI PUSH2 0x86 JUMP JUMPDEST DUP1 PUSH4 0xDBE671F EQ PUSH2 0x8A JUMPI DUP1 PUSH4 0x14434FA5 EQ PUSH2 0xA8 JUMPI DUP1 PUSH4 0x18B0C3FD EQ PUSH2 0xC6 JUMPI DUP1 PUSH4 0x4DF7E3D0 EQ PUSH2 0xE4 JUMPI JUMPDEST PUSH0 PUSH0 REVERT JUMPDEST PUSH2 0x92 PUSH2 0x18C JUMP JUMPDEST PUSH1 0x40 MLOAD PUSH2 0x9F SWAP2 SWAP1 PUSH2 0x245 JUMP JUMPDEST PUSH1 0x40 MLOAD DUP1 SWAP2 SUB SWAP1 RETURN JUMPDEST PUSH2 0xB0 PUSH2 0x191 JUMP JUMPDEST PUSH1 0x40 MLOAD PUSH2 0xBD SWAP2 SWAP1 PUSH2 0x245 JUMP JUMPDEST PUSH1 0x40 MLOAD DUP1 SWAP2 SUB SWAP1 RETURN JUMPDEST PUSH2 0xCE PUSH2 0x1A6 JUMP JUMPDEST PUSH1 0x40 MLOAD PUSH2 0xDB SWAP2 SWAP1 PUSH2 0x245 JUMP JUMPDEST PUSH1 0x40 MLOAD DUP1 SWAP2 SUB SWAP1 RETURN JUMPDEST PUSH2 0xEC PUSH2 0x1BB JUMP JUMPDEST PUSH1 0x40 MLOAD PUSH2 0xF9 SWAP2 SWAP1 PUSH2 0x245 JUMP JUMPDEST PUSH1 0x40 MLOAD DUP1 SWAP2 SUB SWAP1 RETURN JUMPDEST PUSH2 0x11C PUSH1 0x4 DUP1 CALLDATASIZE SUB DUP2 ADD SWAP1 PUSH2 0x117 SWAP2 SWAP1 PUSH2 0x28C JUMP JUMPDEST PUSH2 0x1C1 JUMP JUMPDEST PUSH1 0x40 MLOAD PUSH2 0x129 SWAP2 SWAP1 PUSH2 0x245 JUMP JUMPDEST PUSH1 0x40 MLOAD DUP1 SWAP2 SUB SWAP1 RETURN JUMPDEST PUSH2 0x13A PUSH2 0x1EE JUMP JUMPDEST PUSH1 0x40 MLOAD PUSH2 0x147 SWAP2 SWAP1 PUSH2 0x245 JUMP JUMPDEST PUSH1 0x40 MLOAD DUP1 SWAP2 SUB SWAP1 RETURN JUMPDEST PUSH2 0x158 PUSH2 0x203 JUMP JUMPDEST PUSH1 0x40 MLOAD PUSH2 0x165 SWAP2 SWAP1 PUSH2 0x245 JUMP JUMPDEST PUSH1 0x40 MLOAD DUP1 SWAP2 SUB SWAP1 RETURN JUMPDEST PUSH2 0x176 PUSH2 0x218 JUMP JUMPDEST PUSH1 0x40 MLOAD PUSH2 0x183 SWAP2 SWAP1 PUSH2 0x245 JUMP JUMPDEST PUSH1 0x40 MLOAD DUP1 SWAP2 SUB SWAP1 RETURN JUMPDEST PUSH0 SLOAD DUP2 JUMP JUMPDEST PUSH0 PUSH1 0x1 SLOAD PUSH0 SLOAD PUSH2 0x1A1 SWAP2 SWAP1 PUSH2 0x309 JUMP JUMPDEST SWAP1 POP SWAP1 JUMP JUMPDEST PUSH0 PUSH1 0x1 SLOAD PUSH0 SLOAD PUSH2 0x1B6 SWAP2 SWAP1 PUSH2 0x33C JUMP JUMPDEST SWAP1 POP SWAP1 JUMP JUMPDEST PUSH1 0x1 SLOAD DUP2 JUMP JUMPDEST PUSH0 PUSH1 0x3 DUP3 DUP5 DUP7 PUSH2 0x1D1 SWAP2 SWAP1 PUSH2 0x33C JUMP JUMPDEST PUSH2 0x1DB SWAP2 SWAP1 PUSH2 0x33C JUMP JUMPDEST PUSH2 0x1E5 SWAP2 SWAP1 PUSH2 0x39C JUMP JUMPDEST SWAP1 POP SWAP4 SWAP3 POP POP POP JUMP JUMPDEST PUSH0 PUSH1 0x1 SLOAD PUSH0 SLOAD PUSH2 0x1FE SWAP2 SWAP1 PUSH2 0x39C JUMP JUMPDEST SWAP1 POP SWAP1 JUMP JUMPDEST PUSH0 PUSH1 0x1 SLOAD PUSH0 SLOAD PUSH2 0x213 SWAP2 SWAP1 PUSH2 0x3CC JUMP JUMPDEST SWAP1 POP SWAP1 JUMP JUMPDEST PUSH0 PUSH1 0x1 SLOAD PUSH0 SLOAD PUSH2 0x228 SWAP2 SWAP1 PUSH2 0x3FC JUMP JUMPDEST SWAP1 POP SWAP1 JUMP JUMPDEST PUSH0 DUP2 SWAP1 POP SWAP2 SWAP1 POP JUMP JUMPDEST PUSH2 0x23F DUP2 PUSH2 0x22D JUMP JUMPDEST DUP3 MSTORE POP POP JUMP JUMPDEST PUSH0 PUSH1 0x20 DUP3 ADD SWAP1 POP PUSH2 0x258 PUSH0 DUP4 ADD DUP5 PUSH2 0x236 JUMP JUMPDEST SWAP3 SWAP2 POP POP JUMP JUMPDEST PUSH0 PUSH0 REVERT JUMPDEST PUSH2 0x26B DUP2 PUSH2 0x22D JUMP JUMPDEST DUP2 EQ PUSH2 0x275 JUMPI PUSH0 PUSH0 REVERT JUMPDEST POP JUMP JUMPDEST PUSH0 DUP2 CALLDATALOAD SWAP1 POP PUSH2 0x286 DUP2 PUSH2 0x262 JUMP JUMPDEST SWAP3 SWAP2 POP POP JUMP JUMPDEST PUSH0 PUSH0 PUSH0 PUSH1 0x60 DUP5 DUP7 SUB SLT ISZERO PUSH2 0x2A3 JUMPI PUSH2 0x2A2 PUSH2 0x25E JUMP JUMPDEST JUMPDEST PUSH0 PUSH2 0x2B0 DUP7 DUP3 DUP8 ADD PUSH2 0x278 JUMP JUMPDEST SWAP4 POP POP PUSH1 0x20 PUSH2 0x2C1 DUP7 DUP3 DUP8 ADD PUSH2 0x278 JUMP JUMPDEST SWAP3 POP POP PUSH1 0x40 PUSH2 0x2D2 DUP7 DUP3 DUP8 ADD PUSH2 0x278 JUMP JUMPDEST SWAP2 POP POP SWAP3 POP SWAP3 POP SWAP3 JUMP JUMPDEST PUSH32 0x4E487B7100000000000000000000000000000000000000000000000000000000 PUSH0 MSTORE PUSH1 0x11 PUSH1 0x4 MSTORE PUSH1 0x24 PUSH0 REVERT JUMPDEST PUSH0 PUSH2 0x313 DUP3 PUSH2 0x22D JUMP JUMPDEST SWAP2 POP PUSH2 0x31E DUP4 PUSH2 0x22D JUMP JUMPDEST SWAP3 POP DUP3 DUP3 SUB SWAP1 POP DUP2 DUP2 GT ISZERO PUSH2 0x336 JUMPI PUSH2 0x335 PUSH2 0x2DC JUMP JUMPDEST JUMPDEST SWAP3 SWAP2 POP POP JUMP JUMPDEST PUSH0 PUSH2 0x346 DUP3 PUSH2 0x22D JUMP JUMPDEST SWAP2 POP PUSH2 0x351 DUP4 PUSH2 0x22D JUMP JUMPDEST SWAP3 POP DUP3 DUP3 ADD SWAP1 POP DUP1 DUP3 GT ISZERO PUSH2 0x369 JUMPI PUSH2 0x368 PUSH2 0x2DC JUMP JUMPDEST JUMPDEST SWAP3 SWAP2 POP POP JUMP JUMPDEST PUSH32 0x4E487B7100000000000000000000000000000000000000000000000000000000 PUSH0 MSTORE PUSH1 0x12 PUSH1 0x4 MSTORE PUSH1 0x24 PUSH0 REVERT JUMPDEST PUSH0 PUSH2 0x3A6 DUP3 PUSH2 0x22D JUMP JUMPDEST SWAP2 POP PUSH2 0x3B1 DUP4 PUSH2 0x22D JUMP JUMPDEST SWAP3 POP DUP3 PUSH2 0x3C1 JUMPI PUSH2 0x3C0 PUSH2 0x36F JUMP JUMPDEST JUMPDEST DUP3 DUP3 DIV SWAP1 POP SWAP3 SWAP2 POP POP JUMP JUMPDEST PUSH0 PUSH2 0x3D6 DUP3 PUSH2 0x22D JUMP JUMPDEST SWAP2 POP PUSH2 0x3E1 DUP4 PUSH2 0x22D JUMP JUMPDEST SWAP3 POP DUP3 PUSH2 0x3F1 JUMPI PUSH2 0x3F0 PUSH2 0x36F JUMP JUMPDEST JUMPDEST DUP3 DUP3 MOD SWAP1 POP SWAP3 SWAP2 POP POP JUMP JUMPDEST PUSH0 PUSH2 0x406 DUP3 PUSH2 0x22D JUMP JUMPDEST SWAP2 POP PUSH2 0x411 DUP4 PUSH2 0x22D JUMP JUMPDEST SWAP3 POP DUP3 DUP3 MUL PUSH2 0x41F DUP2 PUSH2 0x22D JUMP JUMPDEST SWAP2 POP DUP3 DUP3 DIV DUP5 EQ DUP4 ISZERO OR PUSH2 0x436 JUMPI PUSH2 0x435 PUSH2 0x2DC JUMP JUMPDEST JUMPDEST POP SWAP3 SWAP2 POP POP JUMP INVALID LOG2 PUSH5 0x6970667358 0x22 SLT KECCAK256 DUP13 MSTORE STATICCALL NOT 0x2E RETF SWAPN 0x33 0xD2 RETURNCONTRACT 0xA 0xA8 DUP2 OR 0x4E DUPN 0xDE EXTCODECOPY PUSH17 0x18AEDDA90558EC6F55AAC0DEC664736F6C PUSH4 0x4300081E STOP CALLER "
		},
		"gasEstimates": {
			"creation": {
				"codeDepositCost": "227800",
				"executionCost": "44478",
				"totalCost": "272278"
			},
			"external": {
				"a()": "2425",
				"avg(uint256,uint256,uint256)": "infinite",
				"b()": "2492",
				"divide()": "infinite",
				"divideab()": "infinite",
				"minus()": "infinite",
				"multiply()": "infinite",
				"plus()": "infinite"
			}
		},
		"methodIdentifiers": {
			"a()": "0dbe671f",
			"avg(uint256,uint256,uint256)": "92cc2841",
			"b()": "4df7e3d0",
			"divide()": "b53b8d7a",
			"divideab()": "ead0779a",
			"minus()": "14434fa5",
			"multiply()": "f3593cd0",
			"plus()": "18b0c3fd"
		}
	},
	"abi": [
		{
			"inputs": [],
			"name": "a",
			"outputs": [
				{
					"internalType": "uint256",
					"name": "",
					"type": "uint256"
				}
			],
			"stateMutability": "view",
			"type": "function"
		},
		{
			"inputs": [
				{
					"internalType": "uint256",
					"name": "x",
					"type": "uint256"
				},
				{
					"internalType": "uint256",
					"name": "y",
					"type": "uint256"
				},
				{
					"internalType": "uint256",
					"name": "z",
					"type": "uint256"
				}
			],
			"name": "avg",
			"outputs": [
				{
					"internalType": "uint256",
					"name": "",
					"type": "uint256"
				}
			],
			"stateMutability": "pure",
			"type": "function"
		},
		{
			"inputs": [],
			"name": "b",
			"outputs": [
				{
					"internalType": "uint256",
					"name": "",
					"type": "uint256"
				}
			],
			"stateMutability": "view",
			"type": "function"
		},
		{
			"inputs": [],
			"name": "divide",
			"outputs": [
				{
					"internalType": "uint256",
					"name": "",
					"type": "uint256"
				}
			],
			"stateMutability": "view",
			"type": "function"
		},
		{
			"inputs": [],
			"name": "divideab",
			"outputs": [
				{
					"internalType": "uint256",
					"name": "",
					"type": "uint256"
				}
			],
			"stateMutability": "view",
			"type": "function"
		},
		{
			"inputs": [],
			"name": "minus",
			"outputs": [
				{
					"internalType": "uint256",
					"name": "",
					"type": "uint256"
				}
			],
			"stateMutability": "view",
			"type": "function"
		},
		{
			"inputs": [],
			"name": "multiply",
			"outputs": [
				{
					"internalType": "uint256",
					"name": "",
					"type": "uint256"
				}
			],
			"stateMutability": "view",
			"type": "function"
		},
		{
			"inputs": [],
			"name": "plus",
			"outputs": [
				{
					"internalType": "uint256",
					"name": "",
					"type": "uint256"
				}
			],
			"stateMutability": "view",
			"type": "function"
		}
	]
}